{
  "_format": "hh-sol-artifact-1",
  "contractName": "GriffinDEX",
  "sourceName": "contracts/GriffinDEX.sol",
  "abi": [
    {
      "inputs": [],
      "stateMutability": "nonpayable",
      "type": "constructor"
    },
    {
      "inputs": [
        {
          "internalType": "address",
          "name": "owner",
          "type": "address"
        }
      ],
      "name": "OwnableInvalidOwner",
      "type": "error"
    },
    {
      "inputs": [
        {
          "internalType": "address",
          "name": "account",
          "type": "address"
        }
      ],
      "name": "OwnableUnauthorizedAccount",
      "type": "error"
    },
    {
      "inputs": [],
      "name": "ReentrancyGuardReentrantCall",
      "type": "error"
    },
    {
      "inputs": [
        {
          "internalType": "address",
          "name": "token",
          "type": "address"
        }
      ],
      "name": "SafeERC20FailedOperation",
      "type": "error"
    },
    {
      "anonymous": false,
      "inputs": [
        {
          "indexed": true,
          "internalType": "bytes32",
          "name": "poolId",
          "type": "bytes32"
        },
        {
          "indexed": true,
          "internalType": "address",
          "name": "provider",
          "type": "address"
        },
        {
          "indexed": false,
          "internalType": "uint256",
          "name": "amountA",
          "type": "uint256"
        },
        {
          "indexed": false,
          "internalType": "uint256",
          "name": "amountB",
          "type": "uint256"
        },
        {
          "indexed": false,
          "internalType": "uint256",
          "name": "liquidity",
          "type": "uint256"
        }
      ],
      "name": "LiquidityAdded",
      "type": "event"
    },
    {
      "anonymous": false,
      "inputs": [
        {
          "indexed": true,
          "internalType": "bytes32",
          "name": "poolId",
          "type": "bytes32"
        },
        {
          "indexed": true,
          "internalType": "address",
          "name": "provider",
          "type": "address"
        },
        {
          "indexed": false,
          "internalType": "uint256",
          "name": "amountA",
          "type": "uint256"
        },
        {
          "indexed": false,
          "internalType": "uint256",
          "name": "amountB",
          "type": "uint256"
        },
        {
          "indexed": false,
          "internalType": "uint256",
          "name": "liquidity",
          "type": "uint256"
        }
      ],
      "name": "LiquidityRemoved",
      "type": "event"
    },
    {
      "anonymous": false,
      "inputs": [
        {
          "indexed": true,
          "internalType": "address",
          "name": "previousOwner",
          "type": "address"
        },
        {
          "indexed": true,
          "internalType": "address",
          "name": "newOwner",
          "type": "address"
        }
      ],
      "name": "OwnershipTransferred",
      "type": "event"
    },
    {
      "anonymous": false,
      "inputs": [
        {
          "indexed": true,
          "internalType": "bytes32",
          "name": "poolId",
          "type": "bytes32"
        },
        {
          "indexed": true,
          "internalType": "address",
          "name": "tokenA",
          "type": "address"
        },
        {
          "indexed": true,
          "internalType": "address",
          "name": "tokenB",
          "type": "address"
        }
      ],
      "name": "PoolCreated",
      "type": "event"
    },
    {
      "anonymous": false,
      "inputs": [
        {
          "indexed": true,
          "internalType": "bytes32",
          "name": "poolId",
          "type": "bytes32"
        },
        {
          "indexed": true,
          "internalType": "address",
          "name": "sender",
          "type": "address"
        },
        {
          "indexed": true,
          "internalType": "address",
          "name": "recipient",
          "type": "address"
        },
        {
          "indexed": false,
          "internalType": "address",
          "name": "tokenIn",
          "type": "address"
        },
        {
          "indexed": false,
          "internalType": "address",
          "name": "tokenOut",
          "type": "address"
        },
        {
          "indexed": false,
          "internalType": "uint256",
          "name": "amountIn",
          "type": "uint256"
        },
        {
          "indexed": false,
          "internalType": "uint256",
          "name": "amountOut",
          "type": "uint256"
        }
      ],
      "name": "Swap",
      "type": "event"
    },
    {
      "inputs": [],
      "name": "FEE_DENOMINATOR",
      "outputs": [
        {
          "internalType": "uint256",
          "name": "",
          "type": "uint256"
        }
      ],
      "stateMutability": "view",
      "type": "function"
    },
    {
      "inputs": [],
      "name": "FEE_NUMERATOR",
      "outputs": [
        {
          "internalType": "uint256",
          "name": "",
          "type": "uint256"
        }
      ],
      "stateMutability": "view",
      "type": "function"
    },
    {
      "inputs": [],
      "name": "MINIMUM_LIQUIDITY",
      "outputs": [
        {
          "internalType": "uint256",
          "name": "",
          "type": "uint256"
        }
      ],
      "stateMutability": "view",
      "type": "function"
    },
    {
      "inputs": [
        {
          "internalType": "address",
          "name": "tokenA",
          "type": "address"
        },
        {
          "internalType": "address",
          "name": "tokenB",
          "type": "address"
        },
        {
          "internalType": "uint256",
          "name": "amountA",
          "type": "uint256"
        },
        {
          "internalType": "uint256",
          "name": "amountB",
          "type": "uint256"
        }
      ],
      "name": "addLiquidity",
      "outputs": [
        {
          "internalType": "uint256",
          "name": "liquidity",
          "type": "uint256"
        }
      ],
      "stateMutability": "nonpayable",
      "type": "function"
    },
    {
      "inputs": [
        {
          "internalType": "address",
          "name": "tokenA",
          "type": "address"
        },
        {
          "internalType": "address",
          "name": "tokenB",
          "type": "address"
        }
      ],
      "name": "createPool",
      "outputs": [
        {
          "internalType": "bytes32",
          "name": "",
          "type": "bytes32"
        }
      ],
      "stateMutability": "nonpayable",
      "type": "function"
    },
    {
      "inputs": [
        {
          "internalType": "uint256",
          "name": "amountIn",
          "type": "uint256"
        },
        {
          "internalType": "uint256",
          "name": "reserveIn",
          "type": "uint256"
        },
        {
          "internalType": "uint256",
          "name": "reserveOut",
          "type": "uint256"
        }
      ],
      "name": "getAmountOut",
      "outputs": [
        {
          "internalType": "uint256",
          "name": "",
          "type": "uint256"
        }
      ],
      "stateMutability": "pure",
      "type": "function"
    },
    {
      "inputs": [
        {
          "internalType": "address",
          "name": "tokenA",
          "type": "address"
        },
        {
          "internalType": "address",
          "name": "tokenB",
          "type": "address"
        }
      ],
      "name": "getPoolId",
      "outputs": [
        {
          "internalType": "bytes32",
          "name": "",
          "type": "bytes32"
        }
      ],
      "stateMutability": "pure",
      "type": "function"
    },
    {
      "inputs": [
        {
          "internalType": "address",
          "name": "tokenA",
          "type": "address"
        },
        {
          "internalType": "address",
          "name": "tokenB",
          "type": "address"
        }
      ],
      "name": "getReserves",
      "outputs": [
        {
          "internalType": "uint256",
          "name": "reserveA",
          "type": "uint256"
        },
        {
          "internalType": "uint256",
          "name": "reserveB",
          "type": "uint256"
        }
      ],
      "stateMutability": "view",
      "type": "function"
    },
    {
      "inputs": [
        {
          "internalType": "address",
          "name": "tokenA",
          "type": "address"
        },
        {
          "internalType": "address",
          "name": "tokenB",
          "type": "address"
        },
        {
          "internalType": "address",
          "name": "user",
          "type": "address"
        }
      ],
      "name": "getUserLiquidity",
      "outputs": [
        {
          "internalType": "uint256",
          "name": "",
          "type": "uint256"
        }
      ],
      "stateMutability": "view",
      "type": "function"
    },
    {
      "inputs": [],
      "name": "owner",
      "outputs": [
        {
          "internalType": "address",
          "name": "",
          "type": "address"
        }
      ],
      "stateMutability": "view",
      "type": "function"
    },
    {
      "inputs": [
        {
          "internalType": "bytes32",
          "name": "",
          "type": "bytes32"
        }
      ],
      "name": "pools",
      "outputs": [
        {
          "internalType": "address",
          "name": "tokenA",
          "type": "address"
        },
        {
          "internalType": "address",
          "name": "tokenB",
          "type": "address"
        },
        {
          "internalType": "uint256",
          "name": "reserveA",
          "type": "uint256"
        },
        {
          "internalType": "uint256",
          "name": "reserveB",
          "type": "uint256"
        },
        {
          "internalType": "uint256",
          "name": "totalLiquidity",
          "type": "uint256"
        }
      ],
      "stateMutability": "view",
      "type": "function"
    },
    {
      "inputs": [
        {
          "internalType": "address",
          "name": "tokenA",
          "type": "address"
        },
        {
          "internalType": "address",
          "name": "tokenB",
          "type": "address"
        },
        {
          "internalType": "uint256",
          "name": "liquidity",
          "type": "uint256"
        }
      ],
      "name": "removeLiquidity",
      "outputs": [
        {
          "internalType": "uint256",
          "name": "amountA",
          "type": "uint256"
        },
        {
          "internalType": "uint256",
          "name": "amountB",
          "type": "uint256"
        }
      ],
      "stateMutability": "nonpayable",
      "type": "function"
    },
    {
      "inputs": [],
      "name": "renounceOwnership",
      "outputs": [],
      "stateMutability": "nonpayable",
      "type": "function"
    },
    {
      "inputs": [
        {
          "internalType": "address",
          "name": "tokenIn",
          "type": "address"
        },
        {
          "internalType": "address",
          "name": "tokenOut",
          "type": "address"
        },
        {
          "internalType": "uint256",
          "name": "amountIn",
          "type": "uint256"
        },
        {
          "internalType": "uint256",
          "name": "minAmountOut",
          "type": "uint256"
        },
        {
          "internalType": "address",
          "name": "recipient",
          "type": "address"
        }
      ],
      "name": "swapToRecipient",
      "outputs": [
        {
          "internalType": "uint256",
          "name": "amountOut",
          "type": "uint256"
        }
      ],
      "stateMutability": "nonpayable",
      "type": "function"
    },
    {
      "inputs": [
        {
          "internalType": "address",
          "name": "newOwner",
          "type": "address"
        }
      ],
      "name": "transferOwnership",
      "outputs": [],
      "stateMutability": "nonpayable",
      "type": "function"
    }
  ],
  "bytecode": "0x608060405234801561001057600080fd5b5060017f9b779b17422d0df92223018b32b4d1fa46e071723d6817e2486d003becc55f0055338061005b57604051631e4fbdf760e01b81526000600482015260240160405180910390fd5b6100648161006a565b506100ba565b600080546001600160a01b038381166001600160a01b0319831681178455604051919092169283917f8be0079c531659141344cd1fd0a4f28419497f9722a3daafe3b4186f6b6457e09190a35050565b611472806100c96000396000f3fe608060405234801561001057600080fd5b50600436106100f55760003560e01c8063b5217bb411610097578063d73792a911610066578063d73792a914610204578063d752fab214610248578063e34336151461025b578063f2fde38b1461026e57600080fd5b8063b5217bb414610187578063ba9a7a5614610204578063cf6c62ea1461020d578063d52bb6f41461022057600080fd5b806341cd47bf116100d357806341cd47bf14610146578063715018a61461014f5780638da5cb5b146101595780639c8d8cf11461017457600080fd5b80630312a843146100fa578063054d50d4146101205780632ef61c2114610133575b600080fd5b61010d6101083660046111fc565b610281565b6040519081526020015b60405180910390f35b61010d61012e366004611253565b610581565b61010d61014136600461127f565b61066a565b61010d6103e581565b6101576106e1565b005b6000546040516001600160a01b039091168152602001610117565b61010d6101823660046112b2565b6106f5565b6101d16101953660046112f5565b6001602081905260009182526040909120805491810154600282015460038301546004909301546001600160a01b039485169490921692909185565b604080516001600160a01b039687168152959094166020860152928401919091526060830152608082015260a001610117565b61010d6103e881565b61010d61021b36600461130e565b610732565b61023361022e36600461127f565b610a62565b60408051928352602083019190915201610117565b610233610256366004611350565b610acb565b61010d61026936600461127f565b610d6e565b61015761027c36600461138c565b610f23565b600061028b610f61565b6001600160a01b0382166102da5760405162461bcd60e51b8152602060048201526011602482015270125b9d985b1a59081c9958da5c1a595b9d607a1b60448201526064015b60405180910390fd5b6000841161031f5760405162461bcd60e51b8152602060048201526012602482015271125b9cdd59999a58da595b9d081a5b9c1d5d60721b60448201526064016102d1565b600061032b878761066a565b60008181526001602052604090208054919250906001600160a01b031661038a5760405162461bcd60e51b8152602060048201526013602482015272141bdbdb08191bd95cc81b9bdd08195e1a5cdd606a1b60448201526064016102d1565b80546001600160a01b038981169116146000816103ab5782600301546103b1565b82600201545b90506000826103c45783600201546103ca565b83600301545b90506103d7898383610581565b95508786101561041d5760405162461bcd60e51b815260206004820152601160248201527014db1a5c1c1859d948195e18d959591959607a1b60448201526064016102d1565b600086116104635760405162461bcd60e51b8152602060048201526013602482015272125b9cdd59999a58da595b9d081bdd5d1c1d5d606a1b60448201526064016102d1565b82156104a3578884600201600082825461047d91906113bd565b925050819055508584600301600082825461049891906113d0565b909155506104d89050565b888460030160008282546104b791906113bd565b92505081905550858460020160008282546104d291906113d0565b90915550505b6104ed6001600160a01b038c1633308c610f7d565b6105016001600160a01b038b168888610fb9565b604080516001600160a01b038d811682528c811660208301529181018b90526060810188905290881690339087907f46e6aeaebfb8f1b6a9be6403b5fc420d9827172046f365e786acb9d5b56c94099060800160405180910390a45050505050610578600160008051602061141d83398151915255565b95945050505050565b60008084116105c75760405162461bcd60e51b8152602060048201526012602482015271125b9cdd59999a58da595b9d081a5b9c1d5d60721b60448201526064016102d1565b6000831180156105d75750600082115b61061c5760405162461bcd60e51b8152602060048201526016602482015275496e73756666696369656e74206c697175696469747960501b60448201526064016102d1565b600061062a6103e5866113e3565b9050600061063884836113e3565b90506000826106496103e8886113e3565b61065391906113bd565b905061065f81836113fa565b979650505050505050565b6000806000836001600160a01b0316856001600160a01b03161061068f578385610692565b84845b6040516bffffffffffffffffffffffff19606084811b8216602084015283901b166034820152919350915060480160405160208183030381529060405280519060200120925050505b92915050565b6106e9610ff3565b6106f36000611020565b565b600080610702858561066a565b60009081526001602090815260408083206001600160a01b03871684526005019091529020549150509392505050565b600061073c610f61565b6000610748868661066a565b60008181526001602052604090208054919250906001600160a01b03166107a75760405162461bcd60e51b8152602060048201526013602482015272141bdbdb08191bd95cc81b9bdd08195e1a5cdd606a1b60448201526064016102d1565b6000851180156107b75750600084115b6107fa5760405162461bcd60e51b8152602060048201526014602482015273496e73756666696369656e7420616d6f756e747360601b60448201526064016102d1565b80546001600160a01b038881169116146000816108175785610819565b865b9050600082610828578761082a565b865b905083600401546000036108a95761084a61084582846113e3565b611070565b95506103e8861161089d5760405162461bcd60e51b815260206004820152601e60248201527f496e73756666696369656e7420696e697469616c206c6971756964697479000060448201526064016102d1565b6004840186905561096c565b600084600201548560040154846108c091906113e3565b6108ca91906113fa565b9050600085600301548660040154846108e391906113e3565b6108ed91906113fa565b90508082106108fc57806108fe565b815b9750600088116109505760405162461bcd60e51b815260206004820152601d60248201527f496e73756666696369656e74206c6971756964697479206d696e74656400000060448201526064016102d1565b8786600401600082825461096491906113bd565b909155505050505b3360009081526005850160205260408120805488929061098d9084906113bd565b92505081905550818460020160008282546109a891906113bd565b92505081905550808460030160008282546109c391906113bd565b909155505083546109df906001600160a01b0316333085610f7d565b60018401546109f9906001600160a01b0316333084610f7d565b6040805183815260208101839052908101879052339086907f9c8e2178a53b464e8c6d21c6d0d1f5189e5d2f6f6a79237ba611cf996a6e6b329060600160405180910390a35050505050610a5a600160008051602061141d83398151915255565b949350505050565b6000806000610a71858561066a565b60008181526001602052604090208054919250906001600160a01b0387811691161480610aa2578160030154610aa8565b81600201545b945080610ab9578160020154610abf565b81600301545b93505050509250929050565b600080610ad6610f61565b6000610ae2868661066a565b6000818152600160209081526040808320338452600581019092529091205491925090851115610b4d5760405162461bcd60e51b8152602060048201526016602482015275496e73756666696369656e74206c697175696469747960501b60448201526064016102d1565b60008511610b8e5760405162461bcd60e51b815260206004820152600e60248201526d5a65726f206c697175696469747960901b60448201526064016102d1565b60008160040154826002015487610ba591906113e3565b610baf91906113fa565b905060008260040154836003015488610bc891906113e3565b610bd291906113fa565b9050600082118015610be45750600081115b610c305760405162461bcd60e51b815260206004820152601d60248201527f496e73756666696369656e74206c6971756964697479206275726e656400000060448201526064016102d1565b33600090815260058401602052604081208054899290610c519084906113d0565b9250508190555086836004016000828254610c6c91906113d0565b9250508190555081836002016000828254610c8791906113d0565b9250508190555080836003016000828254610ca291906113d0565b909155505082546001600160a01b038a811691161480610cc25781610cc4565b825b965080610cd15782610cd3565b815b8454909650610cec906001600160a01b03163385610fb9565b6001840154610d05906001600160a01b03163384610fb9565b6040805184815260208101849052908101899052339086907f1644e236c5520c62ce0dee793b42f87f940781d55b02c890fbbcdfff1ee5e2519060600160405180910390a35050505050610d66600160008051602061141d83398151915255565b935093915050565b6000816001600160a01b0316836001600160a01b031603610dc45760405162461bcd60e51b815260206004820152601060248201526f4964656e746963616c20746f6b656e7360801b60448201526064016102d1565b6001600160a01b03831615801590610de457506001600160a01b03821615155b610e1f5760405162461bcd60e51b815260206004820152600c60248201526b5a65726f206164647265737360a01b60448201526064016102d1565b6000610e2b848461066a565b6000818152600160205260409020549091506001600160a01b031615610e815760405162461bcd60e51b815260206004820152600b60248201526a506f6f6c2065786973747360a81b60448201526064016102d1565b600080846001600160a01b0316866001600160a01b031610610ea4578486610ea7565b85855b600085815260016020819052604080832080546001600160a01b038088166001600160a01b031992831681178455948301805491881691909216811790915591519597509395509293909187917fc0c143d18100b0ec0b6c08cc52247dd860ffd3fc2af30733326e5f980c19635a9190a4509195945050505050565b610f2b610ff3565b6001600160a01b038116610f5557604051631e4fbdf760e01b8152600060048201526024016102d1565b610f5e81611020565b50565b610f696110d8565b600260008051602061141d83398151915255565b610f8b848484846001611108565b610fb357604051635274afe760e01b81526001600160a01b03851660048201526024016102d1565b50505050565b610fc6838383600161117a565b610fee57604051635274afe760e01b81526001600160a01b03841660048201526024016102d1565b505050565b6000546001600160a01b031633146106f35760405163118cdaa760e01b81523360048201526024016102d1565b600080546001600160a01b038381166001600160a01b0319831681178455604051919092169283917f8be0079c531659141344cd1fd0a4f28419497f9722a3daafe3b4186f6b6457e09190a35050565b60008160000361108257506000919050565b600060026110918460016113bd565b61109b91906113fa565b9050825b808210156110d15750806002816110b681876113fa565b6110c091906113bd565b6110ca91906113fa565b915061109f565b9392505050565b60008051602061141d833981519152546002036106f357604051633ee5aeb560e01b815260040160405180910390fd5b6040516323b872dd60e01b60008181526001600160a01b038781166004528616602452604485905291602083606481808c5af19250600160005114831661116857838315161561115b573d6000823e3d81fd5b6000883b113d1516831692505b60405250600060605295945050505050565b60405163a9059cbb60e01b60008181526001600160a01b038616600452602485905291602083604481808b5af1925060016000511483166111d45783831516156111c7573d6000823e3d81fd5b6000873b113d1516831692505b60405250949350505050565b80356001600160a01b03811681146111f757600080fd5b919050565b600080600080600060a0868803121561121457600080fd5b61121d866111e0565b945061122b602087016111e0565b93506040860135925060608601359150611247608087016111e0565b90509295509295909350565b60008060006060848603121561126857600080fd5b505081359360208301359350604090920135919050565b6000806040838503121561129257600080fd5b61129b836111e0565b91506112a9602084016111e0565b90509250929050565b6000806000606084860312156112c757600080fd5b6112d0846111e0565b92506112de602085016111e0565b91506112ec604085016111e0565b90509250925092565b60006020828403121561130757600080fd5b5035919050565b6000806000806080858703121561132457600080fd5b61132d856111e0565b935061133b602086016111e0565b93969395505050506040820135916060013590565b60008060006060848603121561136557600080fd5b61136e846111e0565b925061137c602085016111e0565b9150604084013590509250925092565b60006020828403121561139e57600080fd5b6110d1826111e0565b634e487b7160e01b600052601160045260246000fd5b808201808211156106db576106db6113a7565b818103818111156106db576106db6113a7565b80820281158282048414176106db576106db6113a7565b60008261141757634e487b7160e01b600052601260045260246000fd5b50049056fe9b779b17422d0df92223018b32b4d1fa46e071723d6817e2486d003becc55f00a26469706673582212205ac341fb865330cc4622917f43d5f94b2464d9a388ca06c0aa22443c35ae18c964736f6c63430008140033",
  "linkReferences": {},
  "deployedLinkReferences": {}
}